:1000000000300020E90000005D010000290F000021
:1000100000000000000000000000000000000000E0
:10002000000000000000000000000000610100006E
:10003000000000000000000063010000210E00002D
:1000400069010000710100007901000081010000D8
:10005000890100009101000099010000A101000048
:10006000A9010000B1010000B9010000C1010000B8
:10007000C9010000D1010000D9010000E101000028
:10008000E9010000F1010000F90100000102000097
:100090000902000011020000190200002102000004
:1000A0002902000031020000390200004102000074
:1000B000490200005102000059020000410E0000F8
:1000C00038BF000080F0FF1F0C00000038BF0000A8
:1000D00000E00F40000000008CF0FF1F3C0100001A
:1000E00000E00F400000000010B572B602F026FFDD
:1000F0000D4B07E0186859681C000C349A6800F032
:1001000019F82300094A9342F4D306E018681C004A
:100110000834596800F019F82300054A9342F5D3D2
:1001200062B604F0A1FBFEE7C0000000D8000000AA
:10013000E800000010B5002304E004680C600433FC
:10014000043004319342F8D310BD002303E00022B1
:100150000260043304308B42F9D37047FEE7FEE7B8
:10016000FEE7FEE7FEE7FEE710B5FFF7FCFF10BD78
:1001700010B5FFF7F8FF10BD10B5FFF7F4FF10BD85
:1001800010B5FFF7F0FF10BD10B5FFF7ECFF10BD85
:1001900010B5FFF7E8FF10BD10B5FFF7E4FF10BD85
:1001A00010B5FFF7E0FF10BD10B501F0F7FE10BD70
:1001B00010B501F003FF10BD10B5FFF7D4FF10BD5F
:1001C00010B5FFF7D0FF10BD10B502F09DF810BDBF
:1001D00010B502F0ABF810BD10B504F074FA10BD04
:1001E00010B5FFF7C0FF10BD10B5FFF7BCFF10BD85
:1001F00010B5FFF7B8FF10BD10B5FFF7B4FF10BD85
:1002000010B5FFF7B0FF10BD10B5FFF7ACFF10BD84
:1002100010B5FFF7A8FF10BD10B5FFF7A4FF10BD84
:1002200010B5FFF7A0FF10BD10B5FFF79CFF10BD84
:1002300010B5FFF798FF10BD10B5FFF794FF10BD84
:1002400010B5FFF790FF10BD10B5FFF78CFF10BD84
:1002500010B5FFF788FF10BD10B5FFF784FF10BD84
:1002600010B5FFF780FF10BDFFFFFFFFFFFFFFFF8F
:10027000FFFFFFFFFFFFFFFFFFFFFFFFFFFFFFFF8E
:10028000FFFFFFFFFFFFFFFFFFFFFFFFFFFFFFFF7E
:10029000FFFFFFFFFFFFFFFFFFFFFFFFFFFFFFFF6E
:1002A000FFFFFFFFFFFFFFFFFFFFFFFFFFFFFFFF5E
:1002B000FFFFFFFFFFFFFFFFFFFFFFFFFFFFFFFF4E
:1002C000FFFFFFFFFFFFFFFFFFFFFFFFFFFFFFFF3E
:1002D000FFFFFFFFFFFFFFFFFFFFFFFFFFFFFFFF2E
:1002E000FFFFFFFFFFFFFFFFFFFFFFFFFFFFFFFF1E
:1002F000FFFFFFFFFFFFFFFFFFFFFFFFFFFFFFFF0E
:10030000FFFFFFFFFFFFFFFFFFFFFFFFFFFFFFFFFD
:10031000FFFFFFFFFFFFFFFFFFFFFFFFFFFFFFFFED
:10032000FFFFFFFFFFFFFFFFFFFFFFFFFFFFFFFFDD
:10033000FFFFFFFFFFFFFFFFFFFFFFFFFFFFFFFFCD
:10034000FFFFFFFFFFFFFFFFFFFFFFFFFFFFFFFFBD
:10035000FFFFFFFFFFFFFFFFFFFFFFFFFFFFFFFFAD
:10036000FFFFFFFFFFFFFFFFFFFFFFFFFFFFFFFF9D
:10037000FFFFFFFFFFFFFFFFFFFFFFFFFFFFFFFF8D
:10038000FFFFFFFFFFFFFFFFFFFFFFFFFFFFFFFF7D
:10039000FFFFFFFFFFFFFFFFFFFFFFFFFFFFFFFF6D
:1003A000FFFFFFFFFFFFFFFFFFFFFFFFFFFFFFFF5D
:1003B000FFFFFFFFFFFFFFFFFFFFFFFFFFFFFFFF4D
:1003C000FFFFFFFFFFFFFFFFFFFFFFFFFFFFFFFF3D
:1003D000FFFFFFFFFFFFFFFFFFFFFFFFFFFFFFFF2D
:1003E000FFFFFFFFFFFFFFFFFFFFFFFFFFFFFFFF1D
:1003F000FFFFFFFFFFFFFFFFFFFFFFFFFFFFFFFF0D
:10040000FFFFFFFFFFFFFFFFFFFFFFFFFE3DFFFFBF
:1004100090B583B000AF02003960FB1D1A70FB1D60
:100420001B787F2B28D82F4AFB1D1B785BB29B08BB
:10043000C0339B009B58FA1D1278110003220A401A
:10044000D200FF2191400A00D2431A4011003B68BC
:100450009B01FF221A40FB1D1B7818000323034059
:10046000DB009A401F48FB1D1B785BB29B080A43C8
:10047000C0339B001A5031E01B4AFB1D1B7819004A
:100480000F230B40083B9B0806339B00D318043313
:100490001B68FA1D1278110003220A40D200FF21C6
:1004A00091400A00D2431A4011003B689B01FF2291
:1004B0001A40FB1D1B78180003230340DB009A4001
:1004C0000948FB1D1B781C000F232340083B9B0899
:1004D0000A4306339B00C31804331A60C046BD4666
:1004E00003B090BD00E100E000ED00E080B582B017
:1004F00000AF78607B68013B0C4A934201D901232D
:1005000010E00B4B7A68013A5A6001235B420321E9
:100510001800FFF77DFF064B00229A60044B07226C
:100520001A6000231800BD4602B080BDFFFFFF0027
:1005300010E000E080B582B000AF7860084A094B57
:10054000D358E02293431A007B685B01FF210B40E4
:1005500003491343034A8B50C046BD4602B080BDD9
:100560000070044004100000F0B587B000AF04F044
:100570006FF904F030F904F064F904F027F9002071
:10058000FFF7D8FFED4B1A68FA239900100004F02A
:10059000B0F903001800FFF7A9FFFA239B00180029
:1005A00000F0EEFBE64B180003F026FEE54B1800CA
:1005B00003F022FEE44B1A7802218A431A70E24BC0
:1005C0001B789B07DB0FDAB2DF4B01210A401000DA
:1005D0001A7801218A43111C021C0A431A70DA4B53
:1005E0001B78DB07DB0FDAB2D74B01210A40900002
:1005F0001A7804218A43111C021C0A431A70D24B38
:100600001B785B07DB0FDAB2CF4B01210A40D00029
:100610001A7808218A43111C021C0A431A70CB4B1A
:10062000180003F0E9FDCA4ACA4BD158C84ACA4B60
:10063000D658C74A83235B01D358C848320003F019
:10064000DBFDC34AC34BD258C149C34BCB585340BF
:10065000BB600023FB60BB681D0000231C00BC4A7C
:1006600083235B01D258BA49BD4BCB5853403B6002
:1006700000237B6039687A680B0023433B611300D9
:100680002B437B613B697C69B6491A002300080053
:1006900003F0B2FD002000F01BFD0200B24B110080
:1006A000180003F0A9FDB14B180003F0A5FDB04BF5
:1006B0001B78092B00D9E9E09A00AE4BD3181B68D0
:1006C0009F46AD4B180003F097FDAC4B0622082166
:1006D000180004F0CFF8AA4B06220F21180004F0EE
:1006E000C9F8A84B06224021180004F0C3F8E3E043
:1006F000A54B180003F080FDA04B0622082118002E
:1007000004F0B8F89E4B06220721180004F0B2F856
:100710009C4B0622C021180004F0ACF8CCE09B4BA7
:10072000180003F069FD954B06220821180004F01B
:10073000A1F8934B06221421180004F09BF8914B6A
:1007400006224021180004F095F8B5E0904B1800FF
:1007500003F052FD894B06220821180004F08AF8A4
:10076000874B06221421180004F084F8854B0622DA
:100770004021180004F07EF89EE0864B180003F03C
:100780003BFD7E4B06220821180004F073F87C4BD9
:1007900006221421180004F06DF87A4B062240213D
:1007A000180004F067F887E07B4B180003F024FD85
:1007B000724B06220821180004F05CF8704B0622E8
:1007C0000721180004F056F86E4B0622C0211800CD
:1007D00004F050F8714B180003F00EFD674B062231
:1007E0000821180004F046F8654B06220F21180076
:1007F00004F040F8634B06224021180004F03AF858
:100800005AE0674B180003F0F7FC5C4B0622082106
:10081000180004F02FF85A4B06220F21180004F09C
:1008200029F8584B06224021180004F023F843E031
:100830005C4B180003F0E0FC504B06220821180026
:1008400004F018F84E4B06220F21180004F012F89D
:100850004C4B06224021180004F00CF82CE0524BBF
:10086000180003F0C9FC454B06220821180004F0CB
:1008700001F8434B06220F21180003F0FBFF414B08
:1008800006224021180003F0F5FF15E0474B180041
:1008900003F0B2FC394B06220821180003F0EAFFEE
:1008A000374B06220F21180003F0E4FF354B0622D8
:1008B0004021180003F0DEFF3D4B180003F09CFCC4
:1008C0003C4B180003F098FC00F064F9031E0CD1B7
:1008D00000F03AFA384B180000F052FA03F026FE06
:1008E000364B180003F088FC07E00021012000F0DF
:1008F00059FA334B180003F07FFC324B180003F019
:100900007BFC00F0EBF8031E04D12C4B180003F025
:1009100073FC07E00021012000F044FA284B180086
:1009200003F06AFC284B180003F066FC274B0022FA
:100930001A6090E0264B00221A605DE084F0FF1FF1
:10094000B8A90000E4A900008CF0FF1FA8AB0000CC
:1009500000700440581000005C100000CCAB000098
:1009600024100000E8AB0000F4AB00000CAC000069
:1009700088F0FF1FD8AC000020AC000094F0FF1FEF
:100980009CF0FF1FA4F0FF1F28AC000030AC00005B
:1009900038AC000040AC000048AC000050AC000097
:1009A00058AC000060AC000064AC00006CAC00000F
:1009B0002CAA000074AC0000DC05000094AC000020
:1009C0009CAC0000A4AC0000B4A90000C4F0FF1F60
:1009D000C8F0FF1F234B1B68DAB2234B1B68DBB246
:1009E0001900100000F096F9012000F0C9F91E4B23
:1009F0001B685A1C1C4B1A601A4B1B681B4AD35CA1
:100A00001A00194B1B689A42E4DA164B1B68174A06
:100A1000D35C1A00144B1A6011E0124B1B68DAB257
:100A2000114B1B68DBB21900100000F073F90120B4
:100A300000F0A6F90C4B1B685A1E0B4B1A600A4BB0
:100A40001B68002BE9DA642000F09AF9054B1B685B
:100A50005A1C044B1A60034B1B68052B00D869E72E
:100A600064E7C046C4F0FF1FC8F0FF1FA4F0FF1FDB
:100A700080B586B002AFF860B960FB1D1A70FB68E4
:100A8000002B19D0BB68002B16D011491148124B0E
:100A90000193FB6800930023012201F013FD0C4B2E
:100AA0001978FB1D1B780B48002201F007FE094B4B
:100AB0000121180003F008FDBB68180000F060F980
:100AC000044B180003F01DFDC046BD4604B080BDB8
:100AD000C8BE00000080034000127A0080B500AF5D
:100AE00000F03EF8044A054B1900100000F008F829
:100AF00000231800BD4680BDA05F0000144A00001E
:100B000080B584B000AF78603960124B180003F0F4
:100B100073FB00F025F808217B180F221A707B1850
:100B200016225A700123FB600823FA180A48022390
:100B3000102103F050FD642000F022F9FB68002B27
:100B4000F0D1064B180003F057FBC046BD4604B079
:100B500080BDC046C4AC00000060064094AC0000FC
:100B600080B500AF0A4B00220421180003F092FC6C
:100B70000A2000F005F9064B01220421180003F0B9
:100B800089FC0A2000F0FCF8C046BD4680BDC04686
:100B900080F00F4080B582B000AF5A4B0122052192
:100BA000180003F077FC0A2000F0EAF8564800230A
:100BB0000022322103F0D0FC03001A00012353402D
:100BC000DBB2002B01D0012398E0012000F0D8F81F
:100BD0004D4839232F22322103F0BEFC4A484023DE
:100BE0000022322103F0B8FC012000F0C9F8464889
:100BF000FA230222322103F0AFFCFB1D00221A70FF
:100C000011E0FB1D1B780733D9B2FB1D1B783F4A4F
:100C1000D35C3D480A00322103F09EFCFB1D1A788C
:100C2000FB1D01321A70FB1D1B78052BE9D9FB1D3A
:100C300000221A7011E0FB1D1B782233D9B2FB1D74
:100C40001B78334AD35C30480A00322103F084FC1D
:100C5000FB1D1A78FB1D01321A70FB1D1B78052B3A
:100C6000E9D9FB1D00221A700DE0FB1D1B7816331D
:100C7000DAB225480023322103F06EFCFB1D1A78FE
:100C8000FB1D01321A70FB1D1B78052BEDD91E4888
:100C900000230D22322103F05FFC1B4800230E22AB
:100CA000322103F059FC184800230F22322103F0AF
:100CB00053FC154800237022322103F04DFC1248EA
:100CC00000237122322103F047FC0F4800237222D7
:100CD000322103F041FC0C4800237322322103F03F
:100CE0003BFC094800237422322103F035FC0648FE
:100CF00000237522322103F02FFC00231800BD468B
:100D000002B080BD80F00F400060064094F0FF1FED
:100D10009CF0FF1F80B582B000AF0200FB1D1A706F
:100D2000BB1D0A1C1A70FB1D1B781633DAB2BB1DE3
:100D30001B780448322103F00FFCC046BD4602B0C8
:100D400080BDC0460060064080B582B000AF002381
:100D50007B600BE07B68D8B2084A7B68D3181B78AD
:100D60001900FFF7D7FF7B6801337B607B68052B99
:100D7000F0D9C046BD4602B080BDC046A4F0FF1FFA
:100D800080B582B000AF7860054B7A681A60C046C3
:100D9000034B1B68002BFBD1C046BD4602B080BD93
:100DA00090F0FF1F80B584B000AF0200FB1D1A70E9
:100DB000BB1D0A1C1A70FB1D1B78002B03D1BB1D29
:100DC0001B78002B25D00023FB601FE0BB1D1B7888
:100DD000002B01D0FFF7B8FFFB1D1B78002B06D0BE
:100DE0000E4B3222FA211800FFF742FE02E0FA20F1
:100DF000FFF7C6FFBB1D1B78002B01D003F096FB4D
:100E0000FA20FFF7BDFFFB680133FB60FB68022B94
:100E1000DCDDC046BD4604B080BDC046280A0000E7
:100E200080B500AF054B1B68002B04D0034B1B683B
:100E30005A1E024B1A60C046BD4680BD90F0FF1F8F
:100E400080B582B000AF2E4B1B685A1C2C4B1A6029
:100E50002C4B9B683B602A4B1B68012B43D92A4BC8
:100E60001B683A689A4205D2274B1A683B68D31A26
:100E70007B6004E0244B1B683A68D31A7B60234BE9
:100E80001B687A689A4202D9204B7A681A60204B14
:100E90001B687A689A4202D21D4B7A681A601D4B11
:100EA0001B685A1C1B4B1A601B4B1A687B68D218B4
:100EB000194B1A60184B1B68184A934213D9164BEA
:100EC0001A68144B1B681900100003F012FD030090
:100ED0001A00114B1A600F4B01221A60104B1B684D
:100EE0005A1C0F4B1A60084B3A681A600D4B802150
:100EF000180000F039FBC046BD4602B080BDC046B8
:100F0000C0F0FF1F10E000E0ACF0FF1FB0F0FF1FCB
:100F100080F0FF1FBCF0FF1FB8F0FF1F0000FFFFB5
:100F2000B4F0FF1F80F00F4004207146084202D049
:100F3000EFF3098001E0EFF3088081690A88054B2F
:100F40009A4200D0FEE702318161202101607047A2
:100F5000C0460000ABBE000080B582B000AF786034
:100F6000084B1B68084A134019007B689A04C02389
:100F70001B031A40034B0A431A60C046BD4602B029
:100F800080BDC04600700440FFFFF3FF80B500AF96
:100F90000E4B1B78DBB21A000223134007D10B4B18
:100FA0009B79DBB29B0803221340012B09D1074B2D
:100FB0005B78DBB21A0001231A40054B9200D3582C
:100FC00000E000231800BD4680BDC046004006403A
:100FD00000AE000080B584B000AF78607B680E4A38
:100FE000934204D80F23FB1800221A700CE07B6890
:100FF0000A4A934204D80F23FB1801221A7003E017
:101000000F23FB1802221A700F23FB181B781800FD
:10101000BD4604B080BDC0469798000000127A001B
:1010200080B500AF0A4B1B78DBB25BB2002B0ADA4B
:10103000084B1B68002B03D1074B180001F09EFFE3
:10104000044B1B6800E000231800BD4680BDC0466D
:1010500000500640CCF0FF1F00AD000080B582B00C
:1010600000AF184B1B689B0C03221340022B10D0BF
:10107000032B1AD0002B1CD1FFF7D2FF02008023D4
:101080001B029A4202D180231B0200E000237B60F6
:1010900012E00D4B1B68002B03D10C4B180001F024
:1010A0006DFF094B1B687B6006E0FA239B007B60A9
:1010B00002E000237B60C0467B681800BD4602B09A
:1010C00080BDC04600700440D0F0FF1F2CAD000072
:1010D00080B584B000AF0200FB1D1A70FB1D1B78A9
:1010E000132B47D89A00274BD3181B689F4600F054
:1010F000A3F8254A254BD3581B0F0F221340013369
:10110000190003F0F6FB0300FB6036E000F094F8F2
:101110001D4A1E4BD3581B0F0F22134001331900D9
:1011200003F0E7FB0300FB60174A184BD3581B0C76
:101130000722134001331900F86803F0DAFB0300BB
:10114000FB601AE0FFF78AFF0300FB6015E0FFF782
:1011500067FF0300FB6010E000F030F80300FB6065
:101160000BE000F04FF80300FB6006E0FA239B0061
:10117000FB6002E00023FB60C046FB681800BD4630
:1011800004B080BDB0AD0000007004404410000009
:1011900080B582B000AF786006497B685B68064A1C
:1011A0008B507B681B781800FFF7D6FEC046BD4603
:1011B00002B080BD007004404410000080B582B0D1
:1011C00000AF0F4B1B7ADBB25B08DAB2FB1D0721C5
:1011D0000A401A700A4B1B7EDAB2BB1D07210A4077
:1011E0001A70FFF7D3FE0100FB1D1A78BB1D1B7898
:1011F000D318D9400B001800BD4602B080BDC046D0
:101200000040064080B500AF094B1B7EDBB25BB2ED
:10121000002B06DB064B9B79DBB29B0803221340B5
:1012200001D1044B00E000231800BD4680BDC0463C
:1012300000400640006CDC0280B582B000AF184B65
:101240009B79DBB29B0803221340012B06D002D30B
:10125000022B10D01BE0134B7B601BE0FFF796FEC8
:1012600001000F4B1B7ADBB25B0807221340D94009
:101270000B007B600EE00C4B1B68002B03D10B4B6B
:10128000180001F07BFE084B1B687B6002E0002326
:101290007B60C0467B681800BD4602B080BDC0467A
:1012A00000400640006CDC02CCF0FF1F58AD00008F
:1012B00080B582B000AF78607B68002B03D13E4BD5
:1012C000180001F05BFE3D4B9B79DBB29B080322CB
:1012D0001340012B1DD17B681B78012B19D1374B93
:1012E0005B78DBB21A00012313407A68927893424C
:1012F0000FD0324B1B78DBB2304A3F210B40DBB2C0
:101300001370C0462D4B9B79DBB29B080322134020
:10131000F8D17B68DB78DB18DBB2284A0E210B4062
:10132000DBB213727B685B79DB01DAB27B681B7915
:1013300007210B40DBB221491343DBB20B761F4B75
:101340005B78DBB201229343DAB27B689B780121A0
:101350000B40DBB219491343DBB24B707B681B783F
:101360009B01DAB27B685B7814491343DBB20B70E4
:10137000124B5B78DBB21A00042313400BD07B685E
:101380001B78022B07D1C0460C4B9B79DBB21A00AD
:1013900002231340F8D0C0467B681B781900074B26
:1013A0009B79DBB29B08032213409942F4D10023BE
:1013B0001800BD4602B080BD84AD0000004006406C
:1013C000B0B584B000AF78607B681B680F257C19CE
:1013D0001800FFF7FFFD030023707B681B791B4A91
:1013E0001900100003F04EF97B680633174A190004
:1013F000100003F028F9164B5B78DBB20122134092
:10140000DAB27B191B781B01DBB230210B40DBB257
:101410001343DAB27B685B790D491343DBB24B703F
:101420007B685B79002B0DD0084B1B78DBB25BB27D
:10143000002B07DAC046064B9B79DBB21A00022369
:101440001340F8D0C046BD4604B0B0BD00500640C1
:101450000040064080B582B000AFFB1D00221A702C
:101460001CE0FB1D1A78114B9200D358002B10D0B2
:10147000FB1D1A780E4B9200D358FA1D11780D4AB5
:1014800089008858FA1D1178084A89008A58110085
:101490009847FB1D1A78FB1D01321A70FB1D1B7843
:1014A000012BDED9C046BD4602B080BDD4F0FF1F7F
:1014B000E4F0FF1FDCF0FF1F80B584B000AF786060
:1014C0000023FB6009E00D4BFA689200D3587A685C
:1014D0009A4206D0FB680133FB60FB68042BF2D90B
:1014E00000E0C046FB68042B03D9054B180001F04F
:1014F00045FDFB681800BD4604B080BD1CAE000071
:1015000030AE000080B584B000AFF860B9607A609A
:101510007B68002B03D1134B180001F02FFD7B6873
:101520001B78002B0AD1FB685B690121BA689140E6
:101530000A00D2431A40FB685A610FE07B685A7870
:10154000B968FB68180003F0DFF8FB685A690121ED
:10155000BB6899400B001A43FB685A61C046BD4600
:1015600004B080BD70AE000080B584B000AF78607C
:1015700039607B681800FFF79FFF02000F217B187E
:101580001A707B181A78064B9200D358BB60BB6860
:10159000A0213A685A50C046BD4604B080BDC0463E
:1015A00008AE000080B584B000AF78607B681B0C8B
:1015B000084A94466344FB60FB6819687B681B0417
:1015C0001B0C01229A40FB680A431A60C046BD46C4
:1015D00004B080BD0070044080B584B000AF786076
:1015E0000023FB6009E00D4BFA689200D3587A683B
:1015F0009A4206D0FB680133FB60FB68012BF2D9ED
:1016000000E0C046FB68012B03D9054B180001F030
:10161000B5FCFB681800BD4604B080BDF8AE000004
:1016200088AF000080B584B000AF786039600023D7
:10163000FB603B681022134005D07B681022DA70F3
:10164000064BFB6005E03B680122134001D0044BD0
:10165000FB60FB681800BD4604B080BD4F0400006D
:101660004E04000080B582B000AF786039607B68BE
:10167000DB78DBB21A001023134006D17B689B781D
:10168000DBB21A002023134006D0094B1B683968CF
:101690007A681000984705E0064B1B6839687A683D
:1016A00010009847BFF34F8FC046BD4602B080BDC3
:1016B000F4F0FF1FF8F0FF1F80B586B000AFF860B0
:1016C000B9607A60BB68002B02D07B68002B03D125
:1016D000354B180001F052FCFB681800FFF77CFF47
:1016E0000200324B9200D3581800FFF75BFFFB68F3
:1016F00000221A70FB6800225A70FB6800229A7060
:10170000FB68FF22DA70FB6800225A71FB685022E6
:101710009A71FB680022DA71FB689B78DBB27F224A
:101720001340DAB2FB689A70214AFB681100180076
:1017300002F0FCFFBB6859687A68FB68180000F08B
:1017400039F817203B18FA6892791A703B183A1842
:1017500012787F210A401A70BB685B78DB01D9B22E
:101760003B183A1812780A431A703B183A18127844
:101770000F218A431A70BB681B7A0F221340D9B21B
:101780003B183A1812780A431A70FB683A18127814
:101790009A71BB681B78DB01DAB2FB689A70C046AD
:1017A000BD4606B080BDC046C8AF000080AF000097
:1017B0001250000080B58CB000AFF860B9607A605C
:1017C00001235B42FB620023BB6200237B62232375
:1017D000FB1800221A704AE02323FB181B78012211
:1017E0009A401300FB612223FB1800221A7031E09B
:1017F0002223FB181A782A4B5200D35A1A00FB698D
:1018000053431900786803F074F80300BB61BA68A9
:10181000BB699A4203D9BA68BB69D31A02E0BA69B4
:10182000BB68D31A7B617A69FB6A9A420CD2232384
:10183000FB181B78BB622223FB181B787B627B6939
:10184000FB627B69002B0BD02222BB18BA181278DE
:1018500001321A702223FB181B783F2BC8D900E0F5
:10186000C0462322BB18BA18127801321A702323FB
:10187000FB181B78022B02D8FB6A002BACD1BB6A89
:10188000DBB29B01DAB27B6ADBB23F210B40DBB2F9
:101890001343DAB2FB685A70C046BD460CB080BD37
:1018A00000AF000080B586B000AF7860080011007E
:1018B000FB1C021C1A70BB1C0A1C1A7000237B61E3
:1018C0007B68180002F05DFF0300FB60FB682022CC
:1018D000134002D01A4B7B612CE07B689B78DBB213
:1018E00030221343DAB27B689A70164B3B61C046D4
:1018F0007B681B7BDBB21A000123134005D13B69D7
:10190000013B3B613B69002BF2D13B69002B02D1CB
:101910008A23DB000FE0FB1C1B78DB18DAB2BB1C50
:101920001B78012B01D1012300E000231343DAB21D
:101930007B681A717B691800BD4606B080BDC04641
:101940004C040000FFFF000080B588B000AF786055
:1019500008001100FB1C021C1A70BB1C0A1C1A7028
:101960000023FB617B68180002F00BFF03003B6162
:101970001B23FB1806221A703B692022134009D052
:101980007B689B78DBB21A002023134002D1274BDF
:10199000FB6146E00F217B187A6852781A707B1839
:1019A0001B783F221340DAB27B685A707B689B78C1
:1019B000DBB214221343DAB27B689A707B687A1820
:1019C00012785A7000E0C0461B22BB181B78BA1868
:1019D000591E1170002BF6D1154B7B61C0467B68F8
:1019E0001B7BDBB21A000123134005D17B69013B4D
:1019F0007B617B69002BF2D17B69002B02D18A23AA
:101A0000DB000FE0FB1C1B78DB18DAB2BB1C1B7879
:101A1000012B01D1012300E000231343DAB27B68DC
:101A20001A71FB691800BD4608B080BD4C04000067
:101A3000FFFF000080B584B000AF78600023FB603A
:101A40007B689B78DBB238229343DAB27B689A706A
:101A50000D4BBB60C0467B68DB78DBB21A002023ED
:101A6000134005D0BB68013BBB60BB68002BF2D1C3
:101A7000BB68002B02D18A23DB00FB60FB681800E7
:101A8000BD4604B080BDC046FFFF000080B588B0F1
:101A900000AFF860B9607A603B600023FB611723F8
:101AA000FB1800221A70404BBB61C046FB68DB7814
:101AB000DBB25BB2002B05DBBB69013BBB61BB69E1
:101AC000002BF3D1BB69002B02D18A23DB0066E037
:101AD000FB680222DA70FB689B78DBB210221343AA
:101AE000DAB2FB689A703EE0BB685A1CBA601A789A
:101AF000FB681A712C4BBB61C046FB68DB78DBB21C
:101B00001A000223134005D1BB69013BBB61BB69CD
:101B1000002BF2D1BB69002B02D18A23DB003EE00F
:101B200017217B18FA68D2781A70FB680222DA70E3
:101B30007B181B781022134004D0FB681022DA7047
:101B40001A4BFB611723FB181B780122134007D0A7
:101B50007B68002B04D0FB680122DA70144BFB6118
:101B6000FB69002B05D17B685A1E7A60002BBBD124
:101B700000E0C046FB69002B03D13B680422134000
:101B800003D0FB690A4A934208D1FB680222DA704B
:101B9000FB681800FFF74EFF0300FB61FB691800AC
:101BA000BD4608B080BDC046FFFF00004F040000E6
:101BB0004E04000080B588B000AFF860B9607A606C
:101BC0003B600023FB6117217B1800221A707B18F1
:101BD0001B78DBB20133DAB27B181A703E4BBB6163
:101BE000C046FB68DB78DBB25BB2002B05DBBB6970
:101BF000013BBB61BB69002BF3D1BB69002B02D158
:101C00008A23DB0063E0FB680222DA70FB689B78C2
:101C1000DBB218229343DAB2FB689A707B68012B1F
:101C200007D1FB689B78DBB208221343DAB2FB686A
:101C30009A70FB681B79DAB21723FB181A7040E020
:101C4000254BBB61C046FB68DB78DBB21A00022380
:101C5000134005D1BB69013BBB61BB69002BF2D1CD
:101C6000BB69002B02D18A23DB0030E0FB68022233
:101C7000DA707B68002B12D13B680422134006D136
:101C8000FB681800FFF7D6FE0300FB6107E0FB6866
:101C90009B78DBB210221343DAB2FB689A707B6840
:101CA000012B07D1FB689B78DBB208221343DAB221
:101CB000FB689A70BB685A1CBA60FA681279D2B293
:101CC0001A707B685A1E7A60002BB9D1FB69180024
:101CD000BD4608B080BDC046FFFF000080B586B09D
:101CE00000AF786039603B68002B03D1A64B180029
:101CF00001F044F91723FB183A6852791A7000234F
:101D00003B61A24A7B681100180002F00FFDA04B56
:101D1000FB60C0467B68DB78DBB25BB2002B05DB87
:101D2000FB68013BFB60FB68002BF3D1FB68002BD9
:101D300002D18A23DB0023E13B681B7B002B07D009
:101D40003B685B79012B03D11723FB1800221A7023
:101D50003B681B680122134006D01723FB181B7831
:101D6000012B1DD104230BE13B681B6802221340A9
:101D70000BD03B6819791723FB181A787B68180079
:101D8000FFF7E2FD03003B610AE03B681979172386
:101D9000FB181A787B681800FFF784FD03003B618D
:101DA0003B681B680122134034D13B69002B01D0F2
:101DB0003B69E5E0764BFB60C0467B68DB78DBB2D5
:101DC0001A000223134005D1FB68013BFB60FB684E
:101DD000002BF2D1FB68002B02D18A23DB00CFE07D
:101DE0007B68DB78DBB21A007B6811001800FFF714
:101DF00019FC03003B613B69002B0BD03B69654A32
:101E0000934205D1644B3B617B681800FFF712FEDB
:101E10003B69B5E03B681B7B002B00D189E07B6808
:101E20000222DA703B681B7B013BDAB23B681A7313
:101E30003B689A683B681B7BDB00DA401300DAB230
:101E40007B681A71524BFB60C0467B68DB78DBB263
:101E50001A000223134005D1FB68013BFB60FB68BD
:101E6000002BF2D1FB68002B02D18A23DB0087E034
:101E70007B68DB78DBB21A007B6811001800FFF783
:101E8000D1FB03003B613B69002B09D03B69414A10
:101E9000934203D17B681800FFF7CCFD3B696FE0EC
:101EA0003B681B7B002BBAD13B685B79012B40D18F
:101EB0007B680222DA703B6819797B68012218007E
:101EC000FFF742FD03003B613B69002B01D03B69FA
:101ED00056E02F4BFB60C0467B68DB78DBB21A0014
:101EE0000223134005D1FB68013BFB60FB68002B1C
:101EF000F2D1FB68002B02D18A23DB0040E07B6833
:101F0000DB78DBB21A007B6811001800FFF78AFB50
:101F100003003B613B69002B0BD03B691D4A934298
:101F200005D11D4B3B617B681800FFF783FD3B69C2
:101F300026E03B685B79002B0ED13B685B69002B88
:101F40000AD03B6819693B685A693B681B68786826
:101F5000FFF79CFD03003B613B685B79012B0ED1D1
:101F60003B685B69002B0AD03B6819693B685A697A
:101F70003B681B687868FFF71DFE03003B613B6907
:101F80001800BD4606B080BD28B000001250000009
:101F9000FFFF00004E0400005104000080B500AFB8
:101FA000044B1B68044A19001000FFF75BFBC04696
:101FB000BD4680BDECF0FF1F0060064080B500AF5D
:101FC000044B5B68044A19001000FFF74BFBC04646
:101FD000BD4680BDECF0FF1F0070064080B584B0A8
:101FE00000AF78607B681B0C084A94466344FB6032
:101FF000FB6819687B681B041B0C01229A40FB6874
:102000000A431A60C046BD4604B080BD007004405B
:1020100080B584B000AF78600023FB6009E00D4B11
:10202000FA689200D3587A689A4206D0FB68013366
:10203000FB60FB68012BF2D900E0C046FB68012B76
:1020400003D9054B180000F099FFFB681800BD4646
:1020500004B080BD84B2000094B20000B0B58CB072
:1020600000AFF860B9607A60BB68002B03D19C4B6D
:10207000180000F083FFBB681B68002B03D1994B4D
:10208000180000F07BFFBB681B68BB6100237B620C
:102090002A23FB1800221A8004233B625BE0BB6802
:1020A0001B683A6A53431900786802F022FC030067
:1020B0001A0028217B181A807B181B88002B03D15B
:1020C0002823FB1801221A8028257B191B883A6ACD
:1020D00053431900786802F00CFC03003B61BB68B5
:1020E0001B683A69D31AFB61BB681C687B191B88A3
:1020F00001331A003B6A53431900786802F0F9FB78
:102100000300E31AFA699A4214D9BB681C682825AF
:102110007B191B8801331A003B6A53431900786806
:1021200002F0E7FB0300E31AFB617B191A887B19B5
:1021300001321A80FA69BB699A4209D8FB69BB610E
:102140003B6A7B622A23FB182822BA1812881A805D
:102150003B6A01333B623B6A202BA0D9BB681B68FA
:102160006421180002F0C5FB03001A0013005B0095
:102170009B18BA699A4201D95B4BACE0FB68180026
:10218000FFF746FF03007B61584B7A699200D358F2
:102190001800FFF723FFFB689B68554A1A40FB684D
:1021A0009A60FB681B68FB627B6A032B07D97B6A1A
:1021B000072B04D8FB6A802292021343FB62FB6A5E
:1021C0004C4A1340FB627B6A013B1A06F8235B050D
:1021D0001340FA6A1343FB62FB6A5B0B5B03FB620F
:1021E0002A23FB181B88DB04DA0CFB6A1A43FB6802
:1021F0001A60FB681B68404A1A40FB681A60FB685B
:102200009B683E4A1340FB62BB681B791900BB68A0
:102210005B7A1A02E023DB0013400A001A43BB6812
:102220001B7A9B0004210B401343FA6A1343FB62A1
:10223000BB681B79002B03D0FB6A10221343FB629F
:10224000FB68FA6A9A60FB681B682D4A1340FB62C0
:10225000BB68DB795A0380239B011A40FB6A1A434F
:10226000FB681A60274BFB62FB6A8022120613434D
:10227000FB62FB6AC02212021343FB62BB689B79BC
:10228000002B05D0FB6A802292051343FB6203E01A
:10229000FB6A194A1340FB62FB685A68FB6A1A43DF
:1022A000FB685A60FB689B68FB62BB689B7A002BEB
:1022B00004D0FB6A802212031343FB62BB68DB7A03
:1022C000002B04D0FB6A8022D2021343FB62FB681E
:1022D000FA6A9A6000231800BD460CB0B0BDC04633
:1022E00070B3000098B30000210500008CB200001C
:1022F000FFFFF3FFFFFFFFE0FFFFFFDFE8F8FFFF57
:10230000FFDFFFFF00001F4080B500AF044B1A68DD
:10231000044B1B68044819009047C046BD4680BD69
:1023200004F1FF1FFCF0FF1F0040054080B500AF27
:10233000044B1A68044B5B68044819009047C04678
:10234000BD4680BD04F1FF1FFCF0FF1F005005409B
:1023500080B584B000AF78607B681B0C084A944657
:102360006344FB60FB6819687B681B041B0C01223B
:102370009A40FB680A431A60C046BD4604B080BD5F
:102380000070044080B584B000AF78600323BB6068
:102390000023FB6009E00E4BFA689200D3587A687C
:1023A0009A4207D0FB680133FB60FA68BB689A4227
:1023B000F1D300E0C046FA68BB689A4203D3054BEC
:1023C000180000F0DBFDFB681800BD4604B080BDBE
:1023D00070B7000088B7000080B582B000AF7860A9
:1023E00039603B68002B03D1344B180000F0C6FD68
:1023F0007B681800FFF7C6FF0200314B9200D358EC
:102400001800FFF7A5FF3B681B781A0007231A4046
:102410007B681A603B681B795B0120221A403B688D
:102420005B78590280239B000B401A433B689B79E1
:1024300099048023DB020B401A433B681B7A190482
:1024400080235B020B401A433B68DB7959048023ED
:102450009B020B401A433B685B7AD90480231B0321
:102460000B401A433B68DB78D90580231B040B40E3
:102470001A433B689B781906F0231B050B401A434F
:102480007B6884215A503B685B79002B08D07B68BD
:1024900084229B58C0221A437B6884215A5008E04A
:1024A0007B6884229B58C02293431A007B68842156
:1024B0005A50C046BD4602B080BDC046BCB7000001
:1024C0007CB7000080B588B000AFF860B960190033
:1024D000FB1D1A70BB1D0A1C1A70BB68002B03D1B0
:1024E000714B180000F04AFDBB6A002B03D16F4B03
:1024F000180000F043FDFB1D1B78002B03D16C4B33
:10250000180000F03BFDFB6A002B03D1694B18005B
:1025100000F034FDFB681B6807221340FA6ADA40BA
:1025200013007B61BB1D1B78002B02D0012B0FD049
:102530001DE0FB681B68202293431A00FB681A60A9
:10254000B96A786902F0D5F90300013BFB6110E03C
:10255000FB681B6820221A43FB681A60BB6A5B0099
:102560001900786902F0C5F90300FB6101E001235D
:1025700096E0FB69504A934201D9012390E0FB6841
:10258000FA699A601923FB1800221A707FE0BB6871
:102590009B78642B01D9012382E0BB689B78002BD8
:1025A00004D11A23FB1800221A8018E0BB689B781C
:1025B0001A00FB6953436421180002F09AF90300E2
:1025C0001A001A217B181A807B181B88FA699A4214
:1025D00005D8FB699AB21A23FB1801321A80BB682E
:1025E0001B78FA680133DB00D31804331B68BA6820
:1025F000127810003C2293431A00F968431CDB0058
:10260000CB1804331A60C046BB681B78FA680133E4
:10261000DB00D31804331B683C221340F4D1BB68A1
:102620001B78FA680133DB00D31804331B68BA68DF
:10263000527892001343BA681278100020221A438D
:10264000F968431CDB00CB1804331A60C046BB6832
:102650001B78FA680133DB00D31804331B683C2273
:102660001340F4D0BB681B7818001A23FB181A8893
:10267000F968431CDB00CB1808331A60BB680333CE
:10268000BB6019217B181A787B1801321A70192344
:10269000FA18FB1D12781B789A4200D277E70023C4
:1026A0001800BD4608B080BD04B800002CB800007A
:1026B00054B800007CB80000FFFF000090B585B062
:1026C00000AF78600C0010001900FB1C221C1A706F
:1026D000BB1C021C1A707B1C0A1C1A70FB1C1A788B
:1026E0007B6824498B420ED07B6823498B4208D0FB
:1026F0007B6822498B4201D1022305E001235B4222
:1027000002E0022300E00623934203DC1C4B180086
:1027100000F034FC7B689A680C243B191A803B1942
:102720001B887A1C127853436421180002F0DEF8EB
:1027300003001A000E217B181A807A183B191288A0
:102740001B889A4206D30E23FB180C22BA18128853
:1027500001321A80FB1C1B780E22BA181288796885
:102760000133DB00CB1808331A60C046BD4605B004
:1027700090BDC046008003400090034000A003408D
:10278000A4B8000080B584B000AF78607B681B0CF3
:10279000084A94466344FB60FB6819687B681B0425
:1027A0001B0C01229A40FB680A431A60C046BD46D2
:1027B00004B080BD0070044080B584B000AF786084
:1027C0000323BB600023FB6009E00E4BFA68920014
:1027D000D3587A689A4207D0FB680133FB60FA68E5
:1027E000BB689A42F1D300E0C046FA68BB689A42DF
:1027F00003D3054B180000F0C1FBFB681800BD4671
:1028000004B080BD10BA000028BA0000B0B588B08E
:1028100000AFF860B9607A60BB68002B03D1774BDA
:10282000180000F0ABFBBB681B68002B03D1744B96
:10283000180000F0A3FB1E243B1900221A801D2360
:10284000FB1800221A700023BB61BB681B681B01C8
:102850001900786802F04DF803001A003B191A803D
:102860003B191B88002B03D11E23FB1801221A8061
:1028700000237B617B685A00BB681B68190010004D
:1028800002F037F8030099B21E243B191B885B0144
:102890009AB212257B198A1A1A807B6858003B1954
:1028A0001B885A017B191B88D318190002F021F8E4
:1028B00003007B61BB681B687A699A4204D9BB68D4
:1028C0001B687A69D31A03E0BB681A687B69D31A5C
:1028D000BB61BB681B686421180002F00AF80300A2
:1028E0001A0013005B009B18BA699A4201D9454B44
:1028F00080E0FB681800FFF75FFF0200424B920088
:10290000D3581800FFF73EFFFB68DB78DBB20C22E0
:102910009343DAB2FB68DA70FB681B78DBB21F22E4
:102920009343DAB21E217B181B881B0A9BB2DBB2D1
:102930001343DAB2FB681A707B181B88DAB2FB68A3
:102940005A70FB689B7ADBB21F229343DAB21223E0
:10295000FB181B88DBB21F210B40DBB21343DAB23A
:10296000FB689A72FB689B78DAB21D203B1817212E
:102970008A431A70BB685B799B00DBB20422134068
:10298000D9B23B183A1812780A431A70BB681B79FF
:10299000002B0AD0BB681A791D217B181B781343C2
:1029A000DAB27B1810210A431A70FB681D217A18CD
:1029B00012789A707B18FA68D2781A70BB689B7983
:1029C000002B06D01D22BB18BA18127808210A4322
:1029D0001A70BB68DB79002B06D01D22BB18BA1811
:1029E000127804210A431A70FB681D22BA18127863
:1029F000DA7000231800BD4608B0B0BDA8BA0000C8
:102A0000CCBA0000F50300001CBA000080B582B00B
:102A100000AF7860084A094BD358094A1A407B68CE
:102A20009906C0231B050B4003491343034A8B50EF
:102A3000C046BD4602B080BD0070044004100000D6
:102A4000FFFFFFF380B582B000AF7860084A094B02
:102A5000D358094A1A407B681906C0239B040B40CF
:102A600003491343034A8B50C046BD4602B080BDA4
:102A70000070044004100000FFFFFFFC80B582B02E
:102A800000AF7860084A094BD358E02293431A00FC
:102A90007B685B01FF210B4003491343034A8B50C2
:102AA000C046BD4602B080BD007004400410000066
:102AB00080B500AF034A044B0449D150C046BD461F
:102AC00080BDC046007004404410000000000310A8
:102AD00080B582B000AF7860034B7A681A60C04658
:102AE000BD4602B080BDC046CCF0FF1F80B500AF30
:102AF000FFF7DEFF0F4B1800FEF762FC80231B027E
:102B00001800FFF7E5FF0C4B1800FEF7D1FB0B4B4D
:102B10001800FEF73DFB0A4B0A4A1A600320FFF734
:102B200075FF0320FFF78EFF0620FFF7A7FFC046C3
:102B3000BD4680BD94BE000084BE00008CBE000077
:102B400084F0FF1F00127A0080B582B000AF02004F
:102B5000FB1D1A70FB1D1B787F2B09D8FB1D1B78F2
:102B60001A001F231A40044B012191400A001A60E9
:102B7000C046BD4602B080BD00E100E080B500AFB8
:102B80000220FEF7A5FA0200034B04481900FFF7E4
:102B90003DFEC046BD4680BD9CBE000000C0064054
:102BA00080B500AF044A054B05481900FFF756FAF7
:102BB000C046BD4680BDC04600127A00A4BE0000DB
:102BC0000040054080B500AF0020FEF781FA02000A
:102BD000034B04481900FEF76FFDC046BD4680BD9B
:102BE000B0BE00000060064080B582B002AF094B65
:102BF000094A19001000FFF7EFFB08490648084B87
:102C00000193084B009300230122FFF75BFCC046B1
:102C1000BD4680BDBCBE000000800340C8BE0000B1
:102C200000127A00280A000080B584B000AF7860F6
:102C30007B681B0C084A94466344FB60FB68196878
:102C40007B681B041B0C01229A40FB680A431A6034
:102C5000C046BD4604B080BD0070044080B584B05D
:102C600000AFF860B960FB1D1A70FB68BA6892008B
:102C7000D358094A1A40FB1D1B781902E023DB00D8
:102C80000B401A431100FB68BA689200D150C0464D
:102C9000BD4604B080BDC046FFF8FFFF80B584B0DC
:102CA00000AFF860B960FB1D1A70FB68BA6892004B
:102CB000D358094A1A40FB1D1B781904F0231B0343
:102CC0000B401A431100FB68BA689200D150C0460D
:102CD000BD4604B080BDC046FFFFF0FF80B586B0A2
:102CE00000AF874B1800FFF79FFF864B1800FFF7D8
:102CF0009BFF854B1800FFF797FF844B1800FFF7E9
:102D000093FF834B1800FFF78FFF14217B180122DC
:102D10001A707B1800225A707B187E481A00012115
:102D2000FEF7F0FB10217B1801221A707B1800229D
:102D30005A707B1877481A000221FEF7E3FB0C213A
:102D40007B1801221A707B1800225A707B18714878
:102D50001A000421FEF7D6FB08217B1801221A7005
:102D60007B1800225A707B186A481A000521FEF76A
:102D7000C9FB3B1D00221A703B1D00225A703B1DEF
:102D800064481A000621FEF7BDFB3B0000221A70C2
:102D90003B0000225A703B005E481A000721FEF7F4
:102DA000B1FB5D4B072200211800FFF757FF5A4B7C
:102DB000022201211800FFF751FF574B0022122178
:102DC0001800FFF74BFF544B002213211800FFF7A8
:102DD00045FF514B022202211800FFF73FFF4E4BE7
:102DE000072214211800FFF739FF4B4B072203215C
:102DF0001800FFF733FF484B002204211800FFF7AB
:102E00002DFF464B022200211800FFF727FF434BFE
:102E1000022201211800FFF721FF414B012201216D
:102E20001800FFF71BFF3E4B012202211800FFF79D
:102E300015FF3B4B052203211800FFF70FFF384B0E
:102E4000012204211800FFF709FF354B012205215B
:102E50001800FFF703FF324B012206211800FFF78D
:102E6000FDFE2F4B9B692F4A1A402D4B01210A432F
:102E70009A612B4B012207211800FFF7EFFE284B28
:102E8000092207211800FFF709FF254BDB69254AB6
:102E90001A40234B02210A43DA61234B0422042106
:102EA0001800FFF7DBFE204B002207211800FFF778
:102EB000D5FE1E4B002200211800FFF7CFFE1B4B52
:102EC0001B681B4A1A40194B01210A431A60174B11
:102ED000042216211800FFF7C1FE144B042217210B
:102EE0001800FFF7BBFE134A134BD35811490722B2
:102EF0009343114A8B50C046BD4606B080BDC046C4
:102F0000090038100A0038100B0038100C00381077
:102F10000D00381080F00F400090044000A00440E5
:102F200000B00440FCFFFFFE00C0044000D004409D
:102F3000FEFFFFFE007004401010000080B500AFDF
:102F40000C4B9B78DBB21A000823134007D0094BC7
:102F50009B78DBB2074A08210B43DBB29370064A29
:102F600088235B010021D15001F079FCC046BD46A9
:102F700080BDC04600D007400070044070B5050019
:102F80000E4C0F48210001F08FFC2100280001F0B9
:102F90008BFC0C4A111DCB6F013BCB67002B07DB71
:102FA000936F591C91670A221A7000F00DF870BDDA
:102FB00021000A2000F02EF8F7E7C04680F1FF1F3D
:102FC000D0BE000008F1FF1F18200149ABBE7047BA
:102FD00026000200202310B50400C2689A43E26074
:102FE0008369826A93420CD000F0BAF8E368074A1A
:102FF0001A4010231343E360A36AA3612369E362C9
:103000002360E268024B1340E36010BDEFCFFFFF87
:10301000BFBFFFFFF8B5CA684E4B050013400C0058
:10302000CB60930602D50800FFF7D4FFA268E668DC
:10303000531C0FDAB3050DD402235B429B1AA36025
:1030400090235B021E432368E6605A1C22601D70B9
:10305000E8B20AE0404A3240022A07D00023A360C7
:1030600080331E43E66001204042F8BD80213B4B87
:10307000090233408B420AD10021200000F048F9B8
:10308000E3689B0602D52000FFF7A4FFE6689023C3
:10309000F0225B0233431201E360164210D16069F3
:1030A00001F099FC002820D073051ED5230024339D
:1030B000236123600123E36192235B023343E360D6
:1030C00090210901226826690B4224D0E16A8A42D4
:1030D00000D91100891B17D1731CE3622360E369D7
:1030E0005A1EA26023633570B2E780277F00380044
:1030F00000F0FEF89423E2685B0233431A43206138
:103100002060E761E260DBE72200300000F056F863
:103110000028E1D0A7E7511CE8B221601070E26AF4
:1031200021688A4200D91100E269891B22635B058C
:1031300004D40A2802D08A4200DD89E70023E6622F
:103140002660A3602200300000F038F8002800D18B
:103150007EE788E7FFFFF7FF8A10000010A000005D
:1031600070B5040005690168C26A124BC06803406B
:10317000E36082230340022B02D00120404270BD55
:1031800080235B021840FAD0914200D211008D4298
:1031900008D10020E268084BE56213402560A0607A
:1031A000E360ECE7491B2200280000F007F8002844
:1031B000EFD0E2E7FFFFF7FFFFFFFEFFF7B5D568AF
:1031C00001900E0014005769EB0205D5102338005A
:1031D0001D4301F0FAFBA061104B1D420FD0A16905
:1031E000380001F004FC002806DA80230120E268A0
:1031F00040421343E3600FE0094B1D40E56032009D
:103200000199380001F0FFFB43005B08F61AA3693F
:103210009E19A6610028E8D1FEBDC046100002003C
:10322000EFFFFDFFF7B50027304EC51C3468AD0831
:10323000B84214D02900EB1C9C460A310191002CA5
:103240000FD10C3001F050F8431C08D080239B05AF
:10325000036045608460002F46D130601EE000208E
:10326000FEBD80222368520593423AD1A768636865
:10327000002F0BD080213A6849058A4206D17A682E
:1032800003339B186360BB68A360EFE7AB4207DBC7
:103290009C4505DB80239B05236020000C30DFE785
:1032A000019A934210D98022200080219205226049
:1032B0000C30AA005B1B82184905033B6560A260C5
:1032C000116053609760CBE7002F0AD19B00C01AB2
:1032D00001F00AF8431CC2D080239B05236065607F
:1032E000DBE72700A468AAE7B860D7E7C0F1FF1FB3
:1032F00010B5FFF797FF041E05D11722034901F00F
:1033000082FBFFF761FE200010BDC046E5BE000055
:10331000F7B5394BC56804000E0000921D4201D17B
:10332000022741E043691800019301F054FB071E96
:10333000F6D1009B012B28D0022B2BD0002BEFD1F4
:10334000002EEDDBAB0404D52368E26A9A4200D27A
:10335000E362A069B0420EDCE26A2368934200D2C5
:103360001300226919180092891AB14203DB216BFC
:103370004218B2422EDC20231D430023A662A36024
:1033800063601E4B1D40E5600EE0200000F038F841
:103390003618D5E7019801F018FBE268002805DA35
:1033A000802301271343E3603800FEBDE16A2368F0
:1033B000994200D90B00A1695B1821695B1A92063A
:1033C00003D5A26A934200DA1300834200DA0300B5
:1033D000F618B5E7361AAA0701D5711AA160EA07EF
:1033E00003D5009A9B1AF31A6360009B9E19202351
:1033F00026609D43C5E7C04603001000BFCFF7FF1E
:10340000C268930705D1212201200E4B40421A6069
:1034100070472023134012030AD5002B02D0806A84
:103420000138F5E70368826900699B18181AF7E705
:10343000002B01D0806AEBE70368826900699B1862
:10344000181AE5E7C4F1FF1F37B5184C18492200D8
:10345000002000F069FF802380225B00D200002161
:10346000200000F0F1FE134C134D22002900012032
:1034700000F05AFF802380225B00D2000021200050
:1034800000F0E2FE0D4B1B680193022B0DDD0C4C8E
:1034900029002200022000F047FF802380225B00E9
:1034A000D2000021200000F0CFFE37BD08F1FF1F41
:1034B000FDBE000044F1FF1FFFBE0000CCBE0000B7
:1034C00080F1FF1FF0B5CFB00A920B9300220400E9
:1034D000549B559F0C9218785A1C0792002802D1D1
:1034E0000C984FB0F0BD25281AD00C9B0B9A5D1C90
:1034F000DB179A4204DC0CD10A9B0C9A934208D940
:10350000A368013BA360002B06DB23685A1C2260E2
:1035100018700C95079BDEE72100FFF77BFDF8E7AD
:103520008022042300250221012092009C4607E00E
:103530002D2E03D0302E0ED1154300E00543079306
:10354000079E079B367801332B2E2FD0F0D8202EE4
:103550002ED0232E2FD000202A2E2ED138683B1DAE
:10356000002802DA012240425540079A1F0013004A
:10357000567802330793C343DB17184000232D907E
:1035800010932E2E31D1079B1E782A2E21D00A208F
:1035900001333200303AD1B20793092920D810996B
:1035A0001E784143521810920133F2E70D43C6E7EB
:1035B00066463543C3E70826FBE73200303AD1B20E
:1035C00007930929D7D80A2148431E7810180133D8
:1035D000F3E73B6804371093079B5E780233079349
:1035E000109B002B18DB10231D436C2E09D1079B69
:1035F0001E786C2E13D15E7860231D43079B023327
:1036000007934C2E01D0712E0FD1079B1E7860239B
:103610001D43079B013314E000231093E5E7079B4C
:103620000133079320231D43EBE7682E24D1079B2A
:103630001E78682E07D180235B001D43079B5E78B0
:103640000233079304E0079B0133079380231D4354
:10365000672E6EDC652E00DBE8E2472E00D1E5E246
:1036600016DC412E00D1DBE2452E00D1DEE2002E39
:1036700000D14FE10D97C5E06A2E04D140231D43D0
:10368000079B1E78C6E77A2EFAD0742EE0D1F7E7B2
:10369000612E00D1C4E224DC582EEBD140232B4014
:1036A00000D1D4E1072307379F433B0008330D9334
:1036B0003A687B680492059380232B4000D1CCE1CB
:1036C0006B461B8A049300230593B84F2B0700D544
:1036D000B74FB84B2C93EB0600D4F5E1B6490D403B
:1036E000F2E1632E00D18AE0642EC3D16B0600D4D0
:1036F0007AE2072307379F433B0008330D933A686C
:103700007B680E920F932B0600D474E26B4638222E
:103710009B5E0E93DB170F930F9B002B00DB73E276
:103720000E980F99002342428B41A44F04920593B7
:1037300021E2702E00D1BEE107DC6E2E00D1F0E058
:1037400000DDFFE1692ED1D094E7752E00D120E293
:10375000782E00D188E1732E8CD13B1D0D933B68F0
:103760000893002B01D1964B0893089800F090FD28
:103770000600EB0603D5109B984200DD1E002D9B32
:103780009F1B01232B40119318D120331093AB05BD
:1037900001D5302310930C9B1693DB1717930C9BCA
:1037A0005D1EED19169BEB1A00D4DAE0FB430C9A70
:1037B000DB173B40D218013F0C92FF1A0C9B12936F
:1037C000DB171393129A0C99531AB34200DAF9E0FB
:1037D000F343DB171E408B190C93119B002B00D178
:1037E0009CE03D000C9B1893DB171993013D00D41E
:1037F0000CE1F8430C9BC01738401B183EE03B1D02
:103800003E680D932D9B5F1E01232B401093109A51
:103810000C9B002A10D120230893AB0501D530233F
:1038200008930C9B2693DB1727930C9B5D1E2D9B07
:10383000ED18EB1B013F23D50B995A1C0C92DA179C
:10384000914203DC0BD10A9A9A4208D9A368013B42
:10385000A360002B38DB23685A1C22601E70109B6B
:10386000002B5BD03D000C9B2893DB172993013D77
:103870002FD5FB430C9ADB173B40D3180C934DE03C
:103880000B9B279A934204DC10D10A9B269A934201
:103890000CD9A368013BA360002B10DB2368202117
:1038A0005A1C22606A46521812781A700120269A11
:1038B000279B002112184B4126922793B9E721003C
:1038C0000898FFF7A7FBF1E721003000FFF7A2FB04
:1038D000C5E70B9B299A934204DC0DD10A9B289AD9
:1038E000934209D9A368013BA360002B0DDB236839
:1038F0005A1C226020221A700120289A299B00213C
:1039000012184B4128922993B1E721002020FFF79C
:1039100081FBF1E7079B0D97013B07930D9F0C9DE2
:10392000F7E53B1D0D936B0605D53B680C9A1A60B5
:10393000D2175A60F2E7AB0603D53B680C9A1A60BF
:10394000ECE7EB0506D56A46302152183B68127841
:103950001A70E3E72B06F0D56A463B68128E1A8090
:10396000DCE70B9B179A934204DC10D10A9B169A52
:1039700093420CD9A368013BA360002B10DB2368A2
:1039800040215A1C22606A46521812781A7001208F
:10399000169A179B002112184B411692179301E7B4
:1039A00021001098FFF736FBF1E7C046FCBE00008F
:1039B00008BF000014BF0000FFFDFFFF10BF0000A4
:1039C00001BF00000B9B13998B4204DC10D10A9BB2
:1039D00012998B420CD9A36808990C98013BA360FB
:1039E000091A002B0DDB2368581C20608A5C1A70B2
:1039F0000120129A139B002112184B41129213932B
:103A0000E0E6885C2100FFF705FBF1E70B9B199AC4
:103A1000934204DC0DD10A9B189A934209D9A368FA
:103A2000013BA360002B0DDB23685A1C226020227F
:103A30001A700120189A199B002112184B411892F4
:103A40001993D3E621002020FFF7E4FAF1E73A1DAD
:103A50000D923A68059304922EE6EA0500D434E606
:103A60006A46127C04922FE640232B4017D007238E
:103A700007379F433B0008330D933A687B680492F5
:103A8000059380232B4010D06B461B8A04930023A0
:103A900005938D4F2B0700D58C4F8D4B1AE63A1DA1
:103AA0000D923A6805930492EBE7EA05F1D56A4670
:103AB000127C0492ECE73B1D0D933B68834F04930B
:103AC00000230593824B2C930C9B0A980B993C93F3
:103AD000DB173D933C9A3D9B801A9941012252424B
:103AE000089009914292439255200022109B4197E1
:103AF000409346A950540132202AFBD18222D200A1
:103B0000154201D101224092672E00DDB4E0652EFE
:103B100008DA472E06D000DDA2E0412E02D0452E65
:103B200000D0CDE043AB039342AB029340AB019393
:103B300041AB009330002B0046AA44A9569EB047E3
:103B40001190E5E040232B4017D0072307379F4310
:103B50003B0008330D933A687B68049205938023F9
:103B60002B4010D06B461B8A049300230593564FBD
:103B70002B0700D5574F0023ACE53A1D0D923A684C
:103B800005930492EBE7EA05F1D56A46127C0492AC
:103B9000ECE740232B401BD0072307379F433B0014
:103BA00008330D933A687B680492059380232B4079
:103BB00014D06B461B8A0493002305931023424ABA
:103BC0002B4002D0444B1D4000232C9317007BE771
:103BD0003A1D0D923A6805930492E7E7EA05EDD5A0
:103BE0006A46127C0492E8E73B1D0D933B680E93F6
:103BF000DB170F9387E5EB0500D48DE56B46382284
:103C00009B181B785BB284E50E9A0F9B334F04928E
:103C10000593AB07AFD42C4F6B07ACD5304FAAE759
:103C200010231D4202D11D43033B10938023DB0070
:103C30002B43EA0601D40622109207220737974346
:103C40003A0008320D921D0039687A6800234491C9
:103C5000459200220492059300232C931F0033E722
:103C6000612E00D15EE7642E00D12CE1582E27D1C1
:103C7000002246A90F2046E0702EF9D01BDC692EE9
:103C800000D120E100236F2E1AD1072146AA049803
:103C9000059E119330433BD004980840303098542F
:103CA0000598013347070498C60805983743C008AC
:103CB00004970590EBE7752E00D104E1782ED7D05C
:103CC0000023119324E0C046FCBE00000BBF00009F
:103CD00025BF00000EBF0000FFFDFFFF12BF000068
:103CE000E3BE0000049E2C9B06409E5D059B56543F
:103CF0001B079C46049B01321F09059B1E09634656
:103D00003B4304930596049E059B11921E43E9D103
:103D10008023DB002B402C9300D1D7E0002340937D
:103D2000429B002B01DD013B4093439B002B03DDB5
:103D3000409A013BD3184093119B409A41989E189A
:103D400000F0A6FA2D9B9E1B331A109301232B40E3
:103D50003E93BE4B00261D4200D1E3E0F3171A96B6
:103D60001B93419B5A1C41921F78002F00D0DBE02F
:103D70003E9B002B19D120332D93AB0501D5302369
:103D80002D93F3171593109B14965D1EAB193F935B
:103D90003F9B149A9B1A00D4E7E0109B109ADB43D8
:103DA000DB171340EA1A1092F6182C9B002B00D058
:103DB00035E1F3171C961D93409B013B4093002B6C
:103DC00000DB82E1F317119D1E961F93002D00DD8D
:103DD0009DE1119B119ADB43DB171340F61821E19B
:103DE000059B049ADB0752081A43059B34925B0833
:103DF0003593049A059B92089B071A43059B3692BC
:103E00009B08379336983799349A359B12184B4153
:103E1000049E059F19071009084319092E902F9138
:103E20002E982F9912184B411906100A0843190AA7
:103E3000309031913098319912184B411904100C7F
:103E40000843190C329033913298339912184B4130
:103E500000213A933B913A983B9912184B415907EC
:103E6000DB082B93D0080023062208432A90B618BB
:103E70005F412A982B990A22002300F074FD361A1C
:103E80008F413B0732091A433B09389239933898DE
:103E900039992A9A2B9B801859410A222827424394
:103EA000049B109E30339B1A3CAAD21993553300C1
:103EB0000490059101331093109B059A1193049B74
:103EC00013438DD124E700231093F5E7409B119A0B
:103ED0009B1A00D42FE72C9B2DE7099BBB4203DCE8
:103EE0000CD1089BB34209D9A368013BA360002B06
:103EF00013DB23685A1C226020221A70012200233F
:103F0000B6185F41109B013B9A1BE6D5109AD64329
:103F1000F61716409B1B109320E721002020FFF787
:103F200079F8EBE70027EDE7099B1B9A01369342EE
:103F300004DC0CD1089B1A9A934208D9A368013B70
:103F4000A360002B0CDB23685A1C22601F70012029
:103F50001A9A1B9B002112184B411A921B9300E7DF
:103F600021003800FFF756F8F1E7099B159A9342B4
:103F700004DC10D1089B149A93420CD9A368013B2E
:103F8000A360002B10DB2368B4215A1C22606A4610
:103F9000521812781A700120149A159B00211218D9
:103FA0004B4114921593F3E621002D98FFF732F858
:103FB000F1E746ABF85CF3173C2826D03E286ED1DB
:103FC000350020962193439B013B4393002B24DB38
:103FD000099B219A0135934204DC0DD1089B209A5C
:103FE000934209D9A368013BA360002B52DB2368ED
:103FF0005A1C226030221A700120209A219B002135
:1040000012184B4120922193DDE73500229623932D
:10401000429B013B4293002B1ADA2E000137119B81
:10402000BB42C6DC3E9B002B0BD0F317109D2496A1
:104030002593013D00D48EE0109BD843C017184053
:1040400036180C9B9B19FFF719FCC04601020000B3
:10405000099B239A0135934204DC0DD1089B229AD7
:10406000934209D9A368013BA360002B0DDB2368B1
:104070005A1C226030221A700120229A239B0021B0
:1040800012184B4122922393C2E721003020FEF701
:10409000C1FFF1E721003020FEF7BCFFACE7099A31
:1040A000751C934203DBB8D1089BB342B5D9A36812
:1040B000013BA360002B04DB23685A1C22601870AC
:1040C000ABE72100FEF7A6FFA7E7099B1D9A013683
:1040D000934204DC0DD1089B1C9A934209D9A36832
:1040E000013BA360002B0DDB23685A1C22603022A9
:1040F0001A7001201C9A1D9B002112184B411C9222
:104100001D9359E621003020FEF784FFF1E7099B5B
:104110001F9A934204DC10D1089B1E9A93420CD93B
:10412000A3684EAA5219013B213AA3601078002BD4
:104130000DDB23685A1C2260187001201E9A1F9BF9
:10414000002112184B41013D1E921F933EE62100B3
:10415000FEF760FFF1E7099B259A934204DC0DD13D
:10416000089B249A934209D9A368013BA360002BC2
:104170000DDB23685A1C226020221A700120249A29
:10418000259B002112184B412492259351E72100D1
:104190002020FEF73FFFF1E7F0B50C0097B01500C7
:1041A00007003C22002107A81E0000F063FB0A2341
:1041B000621E00240A930E4B009509930D4B019645
:1041C000029307A823000797FFF77CF9099B0500D6
:1041D0000593013B0993A34204DB079B1C70280055
:1041E00017B0F0BD07A92000FEF714FFF7E7C0469F
:1041F000FFFFFF7FD74800000FB473B506AB20CB9D
:1042000001212A0068460193FFF7C6FF041E14DD52
:10421000461C3000FFF706F8009000280DD0019BE7
:104220002A003100FFF7B8FF064B22000099186DF5
:1042300000F0E9FB009800F021FB200076BC08BCF0
:1042400004B0184708F1FF1FF0B5C5680124AE0798
:1042500010D08026B600B24207D08026F600B242C7
:104260000AD080267600B24204D1084F5E1E012497
:10427000BE4204D92000F0BD0100230024311543C3
:1042800001610160C361C5600024F3E7FEFFFF0028
:10429000032110B5421C084218D1114C0368114982
:1042A00059189943214219D0DCB2411C002C0BD083
:1042B000FF242402811C234206D0FF2109040B4065
:1042C000591E8B41C318D91C881A04E0431C00787E
:1042D000002801D1981A10BD1800DCE70430DDE792
:1042E00080808080FFFEFEFE70B50C4D2B68002B99
:1042F00001D10B4B2B600323C41C2E689C43341943
:10430000200000F09BF8002802D12C60300070BD26
:104310000C220126034B76421A60F7E7BCF1FF1F1F
:10432000C8F1FF1FC4F1FF1FF7B50D000190100089
:10433000140000F033F82B78722B1FD0772B04D0A9
:10434000612B26D10823144A01E004230222022013
:10435000691C032784460426012508782B2810D0E1
:10436000622813D0E260019A62611B0704D5022221
:1043700000212000FEF7CCFF2000FEBD002301221B
:10438000E5E760463A4303430131E6E732432B4316
:10439000FAE70024F0E7C04602800000F0B5C468E8
:1043A00089B00500A30722D0230718D447690669FE
:1043B00000F022F8380000F002FB230502D530009F
:1043C00000F05CFA0B4BA40DA4059C4207D12022FF
:1043D000296A684600F011FB684600F07EFA3C222C
:1043E0000021280000F046FA002009B0F0BD0120AD
:1043F0004042FAE7000080AD73B5002813D000F00A
:1044000027F80500280076BD30006043094BC0182E
:1044100000F01EF8002801D001256D420134019BF7
:10442000A342F1DCEEE7044B04001B680500019396
:104430003C26F4E708F1FF1FCCBE0000034B02004E
:10444000181E02D000209A4240417047C8F5FF1F55
:1044500070B50326C36804001E4011D09B0611D519
:10446000856AFEF7B7FDE268094B20001340E36060
:10447000FEF776FE0022060029002000FEF748FF26
:10448000300070BD036882699D180369ED1AEAE780
:10449000FFCFFFFF80B584B000AFF860B960FB1DAF
:1044A0001A70FB1D1B78002B05D10122BB689A40B6
:1044B000FB689A6004E00122BB689A40FB685A607E
:1044C000C046BD4604B080BD80B584B000AF786002
:1044D0000A00FB1C1A707B681B68FB60FB681822D3
:1044E0009343FB60FB1C1B78DB0018221340FA6827
:1044F0001343FB607B68FA681A60C046BD4604B08F
:1045000080BD80B582B000AF78607B681B681822E0
:1045100093431A007B681A60C0467B681B681822A8
:104520001340FAD1C046BD4602B080BD80B582B00E
:1045300000AF00237B6008E07B68DBB2002118003D
:10454000FCF7E8FB7B6801337B607B68052BF3D9C4
:10455000C046BD4602B080BD90B589B000AF78605E
:104560000C0010001900FB1C221C1A70BB1C021C42
:104570001A707B1C0A1C1A7008210C007B18182268
:104580000021180000F076F921007B18FA1C12783F
:104590001A717B1800225A71BB1C1A787B189A601A
:1045A0007B1801221A737B187A1C1A617B1801226E
:1045B0005A617B1800221A607A187B681100180073
:1045C000FDF78CFB031E01D1012300E0002318003E
:1045D000BD4609B090BDB0B58AB000AFF8607A6052
:1045E0003B600B257B190A1C1A7010210C007B18EC
:1045F00018220021180000F03DF921007B187A19DB
:1046000012781A717B1800225A717B1801229A6065
:104610007B1801221A737B187A681A617B183A6832
:104620005A617B1800221A607A18FB681100180082
:10463000FDF754FB031E01D1012300E00023180005
:10464000BD460AB0B0BD80B584B000AF78603960B7
:104650000F203B187A6812781A703B183A181278B3
:104660005F210A401A703B6819783B183A18127893
:104670000A431A707B683A1812781A70C046BD4611
:1046800004B080BD80B584B000AF78600A00FB1C28
:104690001A700F203B187A6812781A703B183A1873
:1046A00012780F218A431A703B183918FA1C0978BE
:1046B00012780A431A707B683A1812781A70C0464A
:1046C000BD4604B080BD80B500AFFCF7C3FEC04658
:1046D000BD4680BD80B584B000AFF860B960FB1DF9
:1046E0001A70FB1D1B78002B05D10122BB689A4074
:1046F000FB689A6004E00122BB689A40FB685A603C
:10470000C046BD4604B080BD80B584B000AFF8603F
:10471000B960FB1D1A70FB1D1A78B968FB68180098
:10472000FFF7D8FFC046BD4604B080BD80B582B05B
:1047300000AF786039603A6880235B01134009D08C
:104740007B689B79DAB23B681B0ADBB21343DAB2AF
:104750007B689A713A688023DB01134009D07B683B
:104760009B79DAB23B681B0ADBB21343DAB27B688F
:104770009A713B68DAB27B68DA70C046BD4602B017
:1047800080BD80B584B000AF78607B68DB78DBB239
:10479000FB607B689B79DBB21A004023134004D096
:1047A000FB688022D2011343FB607B689B79DBB2FC
:1047B0001A001023134004D0FB68802252011343D7
:1047C000FB60FB681800BD4604B080BD80B500AF3B
:1047D000C046BD4680BD80B500AFFEF787F9C04634
:1047E000BD4680BD80B582B000AF0200FB1D1A70CF
:1047F000FB1D1B785BB2803301D1012306E0FB1D5A
:104800001B785BB21800FEF79FF900231800BD4625
:1048100002B080BD80B500AF1F20FFF7E3FFC046A8
:10482000BD4680BD80B500AFFEF7A8F9FEF7B8F928
:10483000FEF7C8F9FFF7EEFFFEF7D6F9C046BD4612
:1048400080BD80B500AFFFF7EDFFC046BD4680BD1F
:1048500080B500AFFEF742FAC046BD4680BD80B5C8
:1048600000AFC046BD4680BD10B5FEF7EDFDFBF7BD
:104870007BFE10BD10B500F08DF810BD10B50028FE
:1048800011D080210C38490501608268002A0AD0C5
:1048900013688B4207D14368546803331B19436084
:1048A00093688360F1E710BD70B50D0004002078B7
:1048B00000280FD0AB68013BAB60002B05DB2B68F9
:1048C0005A1C2A6018700134F1E72900FEF7A2FB98
:1048D000431CF8D170BD0020704710B50400FFF7ED
:1048E000D7FC0100200000F07CF810BD03000B4352
:1048F00021D4002931D00122D207030901E00901A6
:1049000012099942FBD9430801E049005208994233
:10491000FBD900E04908401A07D35241FAD30146B7
:104920001046704749084018F7D29218FAD3401839
:10493000014610467047CB0F00D04942021000D507
:104940004042534008B5FFF7D4FF0CBC521000D3CF
:104950004042002A00D549421847F446002000F0A2
:1049600001F86047704710B543435143C918040C20
:10497000130C5C43091992B2040C544380B24343B4
:1049800050432204240C801861411A041B0C801827
:10499000594110BD8446043A09D3830707D109065B
:1049A0000B0A19430B0C1943043A02C0FCD204321F
:1049B00003D001700130013AFBD16046704703B467
:1049C00069460220ABBE02B0704703B469460C20B2
:1049D000ABBE02B0704703B469460920ABBE02B05B
:1049E000704703B469460E20ABBE02B0704703B4F3
:1049F00069460A20ABBE02B070470FB469460D206D
:104A0000ABBE04B070470FB469460520ABBE04B01E
:104A10007047FFFFCAFEBABEA90F000000000100E8
:104A200015C89866F87F010021010100ED00010022
:104A3000EF00010000000000000000000000000086
:104A40000000000000000000000000000000000066
:104A5000F10001000000000000000000F300010070
:104A6000F50001000718000077310000F700010091
:104A7000F7000100F7000100F7000100F700010056
:104A8000F7000100F7000100F7000100F700010046
:104A9000F7000100F7000100F7000100F700010036
:104AA000F7000100F7000100F7000100F700010026
:104AB000F7000100F7000100F7000100F700010016
:104AC000F7000100F7000100F7000100F700010006
:104AD000F7000100F7000100F7000100F7000100F6
:104AE000F700010000000000783601007836010070
:104AF0002C00000078360100D47D01000000000089
:104B0000A43E010020070000D47D01000000000049
:104B1000FEE7FEE7FEE7FEE7FEE7FEE710B500234F
:104B200004E004680C600433043004319342F8D389
:104B300010BD002303E000220260043304308B42E6
:104B4000F9D3704710B50D4B07E0186859681C0081
:104B50000C349A68FFF7E2FF2300094A9342F4D32A
:104B600006E018681C0008345968FFF7E2FF2300CC
:104B7000044A9342F5D301F025FAFEE7C400010090
:104B8000DC000100EC00010010B5002001E0013064
:104B9000C0B2032807D8C3001B189A000E4B9B18FD
:104BA0005B7D002BF3D1032814D80B4CC1000A18ED
:104BB0009300E31801225A7500225A609A601A6124
:104BC000FF32DA751A765A769A750B1899006418BE
:104BD000A27610BD0F20FCE7344501000020002321
:104BE00001E00133DBB2032B09D8DA00D2189100BF
:104BF000034A5218527D002AF3D00130F1E7704782
:104C00003445010003280FD8072907D0C3001B181B
:104C10009A00074B9B185B7D8B4207D1C300181885
:104C200083000348181870470020FCE70020FAE7CB
:104C3000344501000323184003D0022803D020206C
:104C400000E0102070471820FCE7FFFF10B500239C
:104C500001E00133DBB2032B11D8DA00D218910046
:104C6000084A5218927D8242F3D1064A5218527D68
:104C7000043AD2B2012AECD8024BC81800E0002056
:104C800010BDC04634450100002803D1022907D1D8
:104C9000013002E0022901D0012070470220FCE728
:104CA0000220FAE700B583B0019001AA012101209A
:104CB000F6F7E4FA03B000BD00B583B000900191AF
:104CC0006A4602210220F6F7D9FA03B000BD10B5FA
:104CD000437D052B00D010BD437F012B05D0212340
:104CE000C15C0078FFF7E8FFF5E72033C15C40685E
:104CF000F9F7C3FDEFE7FFFF10B5104B1B78002B52
:104D000002D0F6F734FB10BD0620F4F7F8FBF6F7F7
:104D100015FB01210120F6F715FBF6F728FB0849E2
:104D2000084801F02BFA00210748F6F7C1FA0120E4
:104D3000F6F794FA014B01221A70E4E7A43E010051
:104D4000080C000078360100DD040100F0B5D646FD
:104D50004F464646C0B588B08246894690461E00FA
:104D600010AB80CB1D7812AB1C78FFF7C5FF534604
:104D700001934B4602934346039304970596069589
:104D8000079401AA07210020F6F778FA08B01CBCA6
:104D900090469946A246F0BD30B585B0447E437F2B
:104DA00005780295C07E0190012000902000FFF759
:104DB000CDFF002005B030BD10B50400FFF70EFF99
:104DC000012800D010BD2000F4F747F8FAE710B52D
:104DD0000400407EFAF792FDE07DFAF78FFD207E19
:104DE000FAF78CFDE068FCF7F9F82069FCF78CF81D
:104DF000E168A06801F09BFB10BDF0B585B006002E
:104E00000C001D000AAB1F7802920392F8F76FF8AE
:104E1000002803D1002E09D0022E0FD02B00012232
:104E200002A92000F8F7F0F805B0F0BD01233A0020
:104E30000021F8F78BF80028F0D0F5E70123019363
:104E400000933B00022201210020F8F729F9F2E744
:104E5000F0B585B004000D001E000AAB1F78029269
:104E60000392F8F744F8002803D1002C0AD0022C52
:104E700010D000960123002202A92800F8F7CFF8ED
:104E800005B0F0BD01233A000021F8F75FF80028D3
:104E9000EFD0F5E70123019300933B0002220121AB
:104EA0000020F8F7FDF8F2E770B584B0040001F0D7
:104EB00089FB02006076E07F217DA37F00930023C1
:104EC000FFF7C6FF0500A07D617EA27E637F267886
:104ED0000296E47E019400240094FFF737FF280037
:104EE00004B070BD10B5F8F702F8002800D010BD6E
:104EF00002210830F6F764FD012001F079F9F6E7A8
:104F000070B5040002F07DFBA068C0B20721FFF776
:104F100079FE051E02D02368002B02D002F079FB37
:104F200070BDFFF7DFFF28690028F7D00121FBF7EC
:104F3000E3FFF3E770B504000E0002000832C16819
:104F4000002001F0E3FA05000F4B984201D0002841
:104F500007D1627E3300E168A068F4F72EF8051EE1
:104F600001D0280070BD094B1A78E168A068F4F7F9
:104F70003EF8051EF5D1E168A068012201F0E6FACD
:104F8000FFF7B0FFEDE7C04604C001009036010016
:104F900010B5F7F75EFFFF21FF20F7F7AEFF0028FF
:104FA00000D010BD01F024F903210820F6F708FD18
:104FB000F7E710B50400437D052B03D0637D042B78
:104FC0002BD010BD017D0820FFF7E2FF637F012B8E
:104FD00011D1637F022B12D12069002808D0002153
:104FE000FBF78AFF2069FBF78FFF637F012B10D04F
:104FF00004236375E2E72078FFF754FEE9E7002217
:10500000E168A06801F0A2FAE168A06801F08FFAF7
:10501000E2E76068F9F7FCFBEAE7E068FBF7DEFF30
:10502000607EFAF76BFC637F022BCAD0207EFAF712
:1050300065FCE07DFAF762FCC3E710B50400437D30
:10504000032B03D0637D022B17D010BD017D002000
:10505000FFF79EFF637F022B0BD00022E168A06860
:1050600001F074FAE168A06801F061FA0223637547
:10507000E8E72078FFF716FEF8E7607EFAF73EFCD7
:10508000E3E770B504000D0016000021F9F7B8FB46
:1050900080228021D20049012000F9F7F9FB32007B
:1050A00029002000F9F7D9FB051E01D0280070BDAA
:1050B00001212000F9F7E1FBF8E7F0B583B0040027
:1050C000019117001D0008AB1E78EB1EDBB2032B0D
:1050D00010D9802212038021C9032000FBF76CFF46
:1050E0003300002229002000FBF71DFF002806D016
:1050F00003B0F0BDC0225203C0210904EDE73A001D
:1051000001992000FBF748FFF2E7FFFF10B582B0DE
:10511000040001F057FA607601F054FA207601F0AD
:1051200051FAE07522000832E168012001F0EEF941
:10513000002807D000280CD0002810D0002817D055
:1051400002B010BD0E4B1A78E168A068F3F756FF65
:10515000F0E721001031E068FBF7B9FEECE7A17D34
:10516000227EE37E207F00902069FFF7A6FFE5E71F
:10517000A068E168227EE37DF3F71FFFE0E7C04609
:105180009036010030B583B00400FFF7BFFF051E65
:105190000CD0002D10D0002D15D02000FFF717FEE9
:1051A0006068F9F735FB280003B030BD211DE068C9
:1051B00000F063FF0500ECE7E17D627E6068FFF7C9
:1051C00060FF0500E7E7E07F217D627EA37F00931B
:1051D0000023FFF73DFE05000122E168A06801F011
:1051E000B5F9FFF77FFE01216068F9F709FB206937
:1051F0000121FBF781FED6E770B584B00400FFF70C
:1052000085FF051E08D02000FFF7E1FD2078FFF79D
:1052100049FD280004B070BDE07F217D627EA37F40
:1052200000930023FFF714FE05000122E168A06847
:1052300001F08CF9E07D617EA27E637F2678029684
:10524000E47E019400240094FFF780FDE1E7FFFF76
:1052500010B5012910D00521FFF7D4FC041E0AD097
:105260001C4B1B68002B31D09847637F022B02D068
:10527000E068FBF7ACFE10BD0331FFF7C3FC041E72
:10528000F9D000F0E9FF0128F5D12023E35C012BE0
:10529000F1D1114B1B68002B07D020009847052344
:1052A00063752000FFF713FDE5E7637F012B05D051
:1052B000032B07D02000FFF7F7FDF0E72000FFF7F2
:1052C00061FFECE72000FFF797FFE8E7FFF771FECB
:1052D000CBE7C046B43E0100AC3E010010B502F081
:1052E00085F9F7F7A4FDFAF7E3FA8020800100F0D2
:1052F000EBFE034B1B68002B00D0984710BDC04647
:10530000A83E010070B5050002F07BF9002405E01D
:1053100029002000FFF79CFF0134E4B2032CF7D9E9
:1053200002F077F970BD70B504000D0002F069F964
:1053300007212000FFF766FC2023C5542900200028
:10534000FFF786FF02F065F970BDFFFFF0B5C646B6
:1053500000B582B0804600911500019308AB1F781C
:1053600009AB1E7802F04DF900F076FF002839D025
:10537000FFF70AFC434618700121FFF743FC041EA7
:1053800038D0022D1DD143461B782370002D26D125
:105390000023E360002323610198FFF74BFCA07713
:1053A0006B461B78E37701F00DF960766677E77658
:1053B00000F032FFE07EFFF7FFFC0223637500245C
:1053C00011E000992800FFF75FFC20750021F7F736
:1053D00094FD0028D7D000236375074C03E0012318
:1053E000E360D7E7054C02F014F9200002B004BCDA
:1053F0009046F0BD024CF6E708300200093002008A
:105400000530020070B582B004000F252E000E405A
:1054100009090D4002F0F5F802212000FFF7F2FB28
:10542000041E09D0124B1B68002B09D0310098478D
:10543000002801D10323637502F0EBF802B070BDC0
:10544000C07F217D627EA37F00930023FFF7D5FC00
:105450000028EDD1637F022B04D031002000FFF73C
:1054600069FDE5E72A0031002000FFF795FCDFE742
:10547000B03E0100F0B5DE46474680B583B004007B
:10548000009201930AAB187883460BAB1F780F2369
:105490000B4098460D0902F0B4F8FFF775FB0600C3
:1054A00020700121FFF7AEFB041E1DD00670019E87
:1054B0003000FBF78CFD00F0AFFE002323610433C6
:1054C00063755B4623776B461B78E376E66043465D
:1054D000A375A5766777002402F09BF8200003B03F
:1054E0000CBC90469B46F0BD004CF5E70530020031
:1054F000F8B504000D0017001E0002F082F8042128
:105500002000FFF77FFB041E28D0C5773000FFF78F
:1055100091FBA077002D05D0022D01D0114E02E0A5
:10552000002600E00026637F022B10D0022F0AD055
:1055300029003800FFF7A8FB010020750020F7F7CD
:10554000DCFC00280CD102F064F83000F8BDE37EEA
:10555000053BDBB2012BE9D9034EE7E7034EF2E747
:10556000034EF0E7073002000A3002000430020068
:105570000830020010B5040002F043F804212000B6
:10558000FFF740FB041E0AD0C07EFFF715FC134B4B
:105590001B68002B08D020009847002815D0002356
:1055A000637502F036F810BD637F022B05D0032B24
:1055B00007D02000FFF7E6FDEFE72000FFF774FCBF
:1055C000EBE72000FFF718FEE7E701232022A354B2
:1055D0000132A35404336375E3E7C046AC3E0100D7
:1055E00010B5040002F00DF807212000FFF70AFBB8
:1055F000041E0CD00B4B1B68002B0BD098470A4B9A
:105600001B68002B09D0200098470023637502F027
:1056100000F810BDFFF711FDF1E72000FFF7C9FC0E
:10562000F3E7C046B83E0100B43E010010B50024C7
:1056300004E02000FFF7D4FF0134E4B2032CF8D9D2
:10564000002403E02000FBF7C9FC0134012CF9D948
:1056500010BD10B50F24044001F0D3FF2000FFF768
:10566000F5FA002804D021230122C254FFF72FFBB2
:1056700001F0CFFF10BD10B50F24044001F0C1FFB1
:105680002000FFF7E3FA002804D021230022C254AF
:10569000FFF71DFB01F0BDFF10BD10B5002800D0C5
:1056A00010BD080000F05EF8FEE7FFFF10B5040033
:1056B0000848006844708170C270002203E09C5C5E
:1056C00081180C7101320F2AF9DD00F058FE40B24A
:1056D00010BDC046DC41010010B5002800D010BD4F
:1056E000080000F03FF8FEE730B583B004000D007D
:1056F000174800F037F86B46012229002000FEF71A
:105700002FFB43425841C0B21249FFF7E5FF009B0F
:105710000A33142B04D8019B0A2B01DC0A3312DA5A
:105720006B46002229002000FEF71AFB4342584135
:10573000C0B20949FFF7D0FFFEF7EDFA074800F0C5
:1057400011F803B030BD064800F00CF8F9E7C04688
:10575000F034010000350100183501002435010046
:105760003C35010010B5040002E0F7F73BFD0134C1
:1057700020780028F9D10A30F7F734FD0D20F7F72B
:1057800031FD10BD10B584B0694600F025F86C46B7
:1057900002E0F7F727FD013420780028F9D10A301C
:1057A000F7F720FD0D20F7F71DFD04B010BD00B583
:1057B00085B01B20F7F7D2FC0120F7F7DCFCF7F7E8
:1057C000CCFC0023029301930093002200210020CF
:1057D000F7F7D6FC05B000BDF0B5C64600B504002D
:1057E0000E00002807D130230B700125002C04DBAC
:1057F0000023984612E00025F8E76442012398460A
:105800000CE00A212000FEF777FC6F1C3031715547
:105810000A212000FEF770FC04003D00002CF0D1AE
:105820004346012B04D0731900221A706B1E0BE043
:105830002C3373550135F6E731190878F2181778CB
:105840000F7010700134013BA342F5DC280004BC4A
:105850009046F0BDF0B5021E03D130230B7001203D
:1058600005E0002003E030330B5401301209002A18
:1058700005D00F231340092BF5DD3733F4E70B1860
:105880001A70421E002307E0CD182E788C18277856
:105890002F7026700133013A9A42F5DCF0BDFFFF0C
:1058A00010B52AE00023234A1370234A13703F38AF
:1058B00001F0E6FE43425841C0B22049FFF7EDFE39
:1058C0001BE0413801F0DCFE43425841C0B21B49A5
:1058D000FFF7E3FE11E0591C164A11700F22104029
:1058E000174AD15C4018D0541EE000200A229A4288
:1058F0004041C0B21349FFF7D0FEF7F76BFC002818
:1059000017DB4228CED04528DBD00A4B1B780A2B68
:10591000EBD8D0220240D02AEFD1074A1278D20722
:10592000D9D40001064AD054034A137801331370C6
:10593000E3E710BDE1410100E041010060360100F4
:10594000E44101006436010010B50A4A1368013BC6
:105950001360002B01D0002010BD0120FDF7A0F93D
:10596000022001F08DFE43425841C0B20249FFF7C8
:1059700094FEF0E734420100C835010010B5064836
:10598000FFF7F0FE0E2001F07BFE43425841C0B20B
:105990000249FFF782FE10BD90350100603601001C
:1059A00010B582B001AB52221A70033A5A7000242B
:1059B000012C0ADCF7F721FC0728F9D801AB185DA8
:1059C000F7F710FC013464B2F2E702B010BD10B575
:1059D00082B001AB52221A700F3A5A700024012C87
:1059E0000ADCF7F70AFC0728F9D801AB185DF7F7CE
:1059F000F9FB013464B2F2E702B010BDF8B5174B01
:105A000042221A7000230EE0CF5C3D095C00013495
:105A1000303D124E35550F223A405C1C6400303A3E
:105A2000325501335BB28342EEDB060040000130A9
:105A30000A4B45221A5400242500731C5B009C422B
:105A40000ADAF7F7DAFB0728F6D8044B585DF7F7C0
:105A5000C9FB013464B2EFE7F8BDC046184201004B
:105A600030B587B00500144C206843425841C0B29D
:105A70001249FFF731FE256003AB01221A709A70BC
:105A8000002159700E485860019100920D4A013171
:105A90000020FDF7C8F843425841C0B20A49FFF759
:105AA0001BFE0120FDF7DAF843425841C0B2074916
:105AB000FFF712FE07B030BD34420100F43501009B
:105AC000D2050000250F0100183601003036010014
:105AD00070B50C00D31703251D40AD18AD10FFF7AE
